I100000149123JOSE MISAEL AREVALO SANCHEZ                  0010012013040500905720130411
I100000262135LIBARDO ANTONIO GARZON TORRE                 0150202013020602204520120406
I100000958212LUIS GUILLERMO AVENDAÑO RODR                 0020442013050603302020000406
I100001327130GONZALO PATIÑO MORENO                        0030062013010604407619984069
I100002249789JOAQUIN VARGAS CABALLERO                     0040032012040601104320440406
I100002859753ERNESTO RICO                                 0050672013040602206720100435
I100002865767MIGUEL ANTONIO LAVERDE NIETO                 0060452011040603303320111406
I100003044362MANUEL CASTRO MUÑETON                        0070rt2011010605300120130406
I100003295380HENRY REY BARBOSA                            0080452013011123200220110506
I100003448867JAIRO DE JESUS HENAO VILLEGA                 0090572013041104550030100806
I200800002194SERVICULTIVOS LTDA                           0220452012040603404520120406
I200800178009CALZADO ORION DEL LITORAL                    0330202000040601505420140106
I200811046741SALUD AXIAL LTDA                             0440761998406903400219990101
I200830067928C I GLOMA S A                                0110432044040601203220100406
I200860013816INSTITUTO DE SEGUROS SOCIALE                 0220672010043503300220131206
I200860024151COMPUTEC SA                                  0330332011140604500120110402
I200860034313BANCO DAVIVIENDA SA                          0533000013040601102320110411
I200890300546COLGATE PALMOLIVE COMPAIA                    2322000011050603304320131010
I200890934264SUBSUELO Y GEOTECNIA LTDA                    0450002010080600204420130506
I200890107487SUPERTIENDAS Y DROGUERIAS OL                 0340452012040600300620130106
I300600003115xxxxxx                                       0150542014010600400320120406
I300611000446ANTONIO CONDOLUCI DOMINGO                    0340021999010100506720130406
I400000163597MARWA MIKHAEL SKAFF DE KARAA                 0120322010040600604520110406
I400000266423SIMONE MARTINEZ                              033002201312060070rt20110106
I400000244359PATRICIO ALEJANDRO HERRERA C                 0450012011040200804520130111
I400000136711ARIAS NILO RIESCO                            0110232011041100905720130411
I400000163598xxxxxx                                       0330432013101002204520120406
T 00000000027                                             772774        787861        
